{
    "_format": "hh-sol-artifact-1",
    "contractName": "SwapeoDEX",
    "sourceName": "contracts/SwapeoDEX.sol",
    "abi": [
        {
            "inputs": [
                {
                    "internalType": "address",
                    "name": "_r",
                    "type": "address"
                },
                {
                    "internalType": "uint16",
                    "name": "_f",
                    "type": "uint16"
                }
            ],
            "stateMutability": "nonpayable",
            "type": "constructor"
        },
        {
            "inputs": [],
            "name": "EnforcedPause",
            "type": "error"
        },
        {
            "inputs": [],
            "name": "ExpectedPause",
            "type": "error"
        },
        {
            "inputs": [],
            "name": "HighSlippage",
            "type": "error"
        },
        {
            "inputs": [],
            "name": "IdenticalTokens",
            "type": "error"
        },
        {
            "inputs": [],
            "name": "InsufficientAmounts",
            "type": "error"
        },
        {
            "inputs": [],
            "name": "InsufficientLiquidity",
            "type": "error"
        },
        {
            "inputs": [],
            "name": "InvalidFee",
            "type": "error"
        },
        {
            "inputs": [],
            "name": "NoFees",
            "type": "error"
        },
        {
            "inputs": [],
            "name": "NoLiquidity",
            "type": "error"
        },
        {
            "inputs": [
                {
                    "internalType": "address",
                    "name": "owner",
                    "type": "address"
                }
            ],
            "name": "OwnableInvalidOwner",
            "type": "error"
        },
        {
            "inputs": [
                {
                    "internalType": "address",
                    "name": "account",
                    "type": "address"
                }
            ],
            "name": "OwnableUnauthorizedAccount",
            "type": "error"
        },
        {
            "inputs": [],
            "name": "ReentrancyGuardReentrantCall",
            "type": "error"
        },
        {
            "inputs": [
                {
                    "internalType": "address",
                    "name": "token",
                    "type": "address"
                }
            ],
            "name": "SafeERC20FailedOperation",
            "type": "error"
        },
        {
            "inputs": [],
            "name": "UnexistingPair",
            "type": "error"
        },
        {
            "inputs": [],
            "name": "UseForward",
            "type": "error"
        },
        {
            "inputs": [],
            "name": "ZeroAddress",
            "type": "error"
        },
        {
            "anonymous": false,
            "inputs": [
                {
                    "indexed": true,
                    "internalType": "address",
                    "name": "p",
                    "type": "address"
                },
                {
                    "indexed": false,
                    "internalType": "address",
                    "name": "t0",
                    "type": "address"
                },
                {
                    "indexed": false,
                    "internalType": "address",
                    "name": "t1",
                    "type": "address"
                },
                {
                    "indexed": false,
                    "internalType": "uint256",
                    "name": "a0",
                    "type": "uint256"
                },
                {
                    "indexed": false,
                    "internalType": "uint256",
                    "name": "a1",
                    "type": "uint256"
                },
                {
                    "indexed": false,
                    "internalType": "uint256",
                    "name": "liq",
                    "type": "uint256"
                }
            ],
            "name": "Deposit",
            "type": "event"
        },
        {
            "anonymous": false,
            "inputs": [
                {
                    "indexed": false,
                    "internalType": "uint16",
                    "name": "newFee",
                    "type": "uint16"
                }
            ],
            "name": "FeeUpdate",
            "type": "event"
        },
        {
            "anonymous": false,
            "inputs": [
                {
                    "indexed": true,
                    "internalType": "bytes32",
                    "name": "pairKey",
                    "type": "bytes32"
                },
                {
                    "indexed": false,
                    "internalType": "uint256",
                    "name": "feeA",
                    "type": "uint256"
                },
                {
                    "indexed": false,
                    "internalType": "uint256",
                    "name": "feeB",
                    "type": "uint256"
                }
            ],
            "name": "FeesDistributed",
            "type": "event"
        },
        {
            "anonymous": false,
            "inputs": [
                {
                    "indexed": false,
                    "internalType": "address",
                    "name": "inT",
                    "type": "address"
                },
                {
                    "indexed": false,
                    "internalType": "address",
                    "name": "outT",
                    "type": "address"
                },
                {
                    "indexed": false,
                    "internalType": "uint256",
                    "name": "amtIn",
                    "type": "uint256"
                },
                {
                    "indexed": false,
                    "internalType": "uint256",
                    "name": "amtOut",
                    "type": "uint256"
                }
            ],
            "name": "Forward",
            "type": "event"
        },
        {
            "anonymous": false,
            "inputs": [
                {
                    "indexed": true,
                    "internalType": "address",
                    "name": "previousOwner",
                    "type": "address"
                },
                {
                    "indexed": true,
                    "internalType": "address",
                    "name": "newOwner",
                    "type": "address"
                }
            ],
            "name": "OwnershipTransferred",
            "type": "event"
        },
        {
            "anonymous": false,
            "inputs": [
                {
                    "indexed": false,
                    "internalType": "address",
                    "name": "account",
                    "type": "address"
                }
            ],
            "name": "Paused",
            "type": "event"
        },
        {
            "anonymous": false,
            "inputs": [
                {
                    "indexed": true,
                    "internalType": "address",
                    "name": "u",
                    "type": "address"
                },
                {
                    "indexed": false,
                    "internalType": "address",
                    "name": "inT",
                    "type": "address"
                },
                {
                    "indexed": false,
                    "internalType": "address",
                    "name": "outT",
                    "type": "address"
                },
                {
                    "indexed": false,
                    "internalType": "uint256",
                    "name": "amtIn",
                    "type": "uint256"
                },
                {
                    "indexed": false,
                    "internalType": "uint256",
                    "name": "amtOut",
                    "type": "uint256"
                }
            ],
            "name": "Swap",
            "type": "event"
        },
        {
            "anonymous": false,
            "inputs": [
                {
                    "indexed": false,
                    "internalType": "address",
                    "name": "account",
                    "type": "address"
                }
            ],
            "name": "Unpaused",
            "type": "event"
        },
        {
            "anonymous": false,
            "inputs": [
                {
                    "indexed": true,
                    "internalType": "address",
                    "name": "p",
                    "type": "address"
                },
                {
                    "indexed": false,
                    "internalType": "address",
                    "name": "t0",
                    "type": "address"
                },
                {
                    "indexed": false,
                    "internalType": "address",
                    "name": "t1",
                    "type": "address"
                },
                {
                    "indexed": false,
                    "internalType": "uint256",
                    "name": "a0",
                    "type": "uint256"
                },
                {
                    "indexed": false,
                    "internalType": "uint256",
                    "name": "a1",
                    "type": "uint256"
                }
            ],
            "name": "Withdraw",
            "type": "event"
        },
        {
            "inputs": [
                {
                    "internalType": "bytes32",
                    "name": "",
                    "type": "bytes32"
                },
                {
                    "internalType": "address",
                    "name": "",
                    "type": "address"
                }
            ],
            "name": "bal",
            "outputs": [
                {
                    "internalType": "uint256",
                    "name": "",
                    "type": "uint256"
                }
            ],
            "stateMutability": "view",
            "type": "function"
        },
        {
            "inputs": [
                {
                    "internalType": "address",
                    "name": "tA",
                    "type": "address"
                },
                {
                    "internalType": "address",
                    "name": "tB",
                    "type": "address"
                }
            ],
            "name": "claimFees",
            "outputs": [],
            "stateMutability": "nonpayable",
            "type": "function"
        },
        {
            "inputs": [
                {
                    "internalType": "bytes32",
                    "name": "",
                    "type": "bytes32"
                },
                {
                    "internalType": "address",
                    "name": "",
                    "type": "address"
                }
            ],
            "name": "debtA",
            "outputs": [
                {
                    "internalType": "uint256",
                    "name": "",
                    "type": "uint256"
                }
            ],
            "stateMutability": "view",
            "type": "function"
        },
        {
            "inputs": [
                {
                    "internalType": "bytes32",
                    "name": "",
                    "type": "bytes32"
                },
                {
                    "internalType": "address",
                    "name": "",
                    "type": "address"
                }
            ],
            "name": "debtB",
            "outputs": [
                {
                    "internalType": "uint256",
                    "name": "",
                    "type": "uint256"
                }
            ],
            "stateMutability": "view",
            "type": "function"
        },
        {
            "inputs": [
                {
                    "internalType": "address",
                    "name": "tA",
                    "type": "address"
                },
                {
                    "internalType": "address",
                    "name": "tB",
                    "type": "address"
                },
                {
                    "internalType": "uint256",
                    "name": "aA",
                    "type": "uint256"
                },
                {
                    "internalType": "uint256",
                    "name": "aB",
                    "type": "uint256"
                }
            ],
            "name": "deposit",
            "outputs": [],
            "stateMutability": "nonpayable",
            "type": "function"
        },
        {
            "inputs": [
                {
                    "internalType": "address",
                    "name": "tA",
                    "type": "address"
                },
                {
                    "internalType": "address",
                    "name": "tB",
                    "type": "address"
                }
            ],
            "name": "distributeFees",
            "outputs": [],
            "stateMutability": "nonpayable",
            "type": "function"
        },
        {
            "inputs": [
                {
                    "internalType": "bytes32",
                    "name": "pairKey",
                    "type": "bytes32"
                }
            ],
            "name": "feesCollected",
            "outputs": [
                {
                    "internalType": "uint256",
                    "name": "feeA",
                    "type": "uint256"
                },
                {
                    "internalType": "uint256",
                    "name": "feeB",
                    "type": "uint256"
                }
            ],
            "stateMutability": "view",
            "type": "function"
        },
        {
            "inputs": [
                {
                    "internalType": "address",
                    "name": "inT",
                    "type": "address"
                },
                {
                    "internalType": "address",
                    "name": "outT",
                    "type": "address"
                },
                {
                    "internalType": "uint256",
                    "name": "amt",
                    "type": "uint256"
                },
                {
                    "internalType": "uint256",
                    "name": "minOut",
                    "type": "uint256"
                }
            ],
            "name": "forwardToUniswap",
            "outputs": [
                {
                    "internalType": "uint256",
                    "name": "",
                    "type": "uint256"
                }
            ],
            "stateMutability": "nonpayable",
            "type": "function"
        },
        {
            "inputs": [
                {
                    "internalType": "uint256",
                    "name": "amountIn",
                    "type": "uint256"
                },
                {
                    "internalType": "address",
                    "name": "inT",
                    "type": "address"
                },
                {
                    "internalType": "address",
                    "name": "outT",
                    "type": "address"
                }
            ],
            "name": "getAmountOut",
            "outputs": [
                {
                    "internalType": "uint256",
                    "name": "amountOut",
                    "type": "uint256"
                }
            ],
            "stateMutability": "view",
            "type": "function"
        },
        {
            "inputs": [
                {
                    "internalType": "address",
                    "name": "a",
                    "type": "address"
                },
                {
                    "internalType": "address",
                    "name": "b",
                    "type": "address"
                }
            ],
            "name": "getKey",
            "outputs": [
                {
                    "internalType": "bytes32",
                    "name": "",
                    "type": "bytes32"
                }
            ],
            "stateMutability": "pure",
            "type": "function"
        },
        {
            "inputs": [
                {
                    "internalType": "address",
                    "name": "user",
                    "type": "address"
                },
                {
                    "internalType": "address",
                    "name": "tA",
                    "type": "address"
                },
                {
                    "internalType": "address",
                    "name": "tB",
                    "type": "address"
                }
            ],
            "name": "getLPBalance",
            "outputs": [
                {
                    "internalType": "uint256",
                    "name": "",
                    "type": "uint256"
                }
            ],
            "stateMutability": "view",
            "type": "function"
        },
        {
            "inputs": [
                {
                    "internalType": "address",
                    "name": "tA",
                    "type": "address"
                },
                {
                    "internalType": "address",
                    "name": "tB",
                    "type": "address"
                }
            ],
            "name": "getLPProviders",
            "outputs": [
                {
                    "internalType": "address[]",
                    "name": "",
                    "type": "address[]"
                }
            ],
            "stateMutability": "view",
            "type": "function"
        },
        {
            "inputs": [
                {
                    "internalType": "address",
                    "name": "tA",
                    "type": "address"
                },
                {
                    "internalType": "address",
                    "name": "tB",
                    "type": "address"
                }
            ],
            "name": "getPairInfo",
            "outputs": [
                {
                    "internalType": "address",
                    "name": "_token0",
                    "type": "address"
                },
                {
                    "internalType": "address",
                    "name": "_token1",
                    "type": "address"
                },
                {
                    "internalType": "uint112",
                    "name": "_reserveA",
                    "type": "uint112"
                },
                {
                    "internalType": "uint112",
                    "name": "_reserveB",
                    "type": "uint112"
                },
                {
                    "internalType": "uint256",
                    "name": "_totalLiquidity",
                    "type": "uint256"
                },
                {
                    "internalType": "uint256",
                    "name": "_accFeeA",
                    "type": "uint256"
                },
                {
                    "internalType": "uint256",
                    "name": "_accFeeB",
                    "type": "uint256"
                }
            ],
            "stateMutability": "view",
            "type": "function"
        },
        {
            "inputs": [
                {
                    "internalType": "address",
                    "name": "tA",
                    "type": "address"
                },
                {
                    "internalType": "address",
                    "name": "tB",
                    "type": "address"
                }
            ],
            "name": "getReserves",
            "outputs": [
                {
                    "internalType": "uint112",
                    "name": "reserveA",
                    "type": "uint112"
                },
                {
                    "internalType": "uint112",
                    "name": "reserveB",
                    "type": "uint112"
                },
                {
                    "internalType": "uint32",
                    "name": "timestamp",
                    "type": "uint32"
                }
            ],
            "stateMutability": "view",
            "type": "function"
        },
        {
            "inputs": [],
            "name": "owner",
            "outputs": [
                {
                    "internalType": "address",
                    "name": "",
                    "type": "address"
                }
            ],
            "stateMutability": "view",
            "type": "function"
        },
        {
            "inputs": [
                {
                    "internalType": "bytes32",
                    "name": "",
                    "type": "bytes32"
                }
            ],
            "name": "pairs",
            "outputs": [
                {
                    "internalType": "uint112",
                    "name": "rA",
                    "type": "uint112"
                },
                {
                    "internalType": "uint112",
                    "name": "rB",
                    "type": "uint112"
                },
                {
                    "internalType": "uint32",
                    "name": "t",
                    "type": "uint32"
                },
                {
                    "internalType": "uint256",
                    "name": "totLiq",
                    "type": "uint256"
                },
                {
                    "internalType": "uint256",
                    "name": "accFeeA",
                    "type": "uint256"
                },
                {
                    "internalType": "uint256",
                    "name": "accFeeB",
                    "type": "uint256"
                }
            ],
            "stateMutability": "view",
            "type": "function"
        },
        {
            "inputs": [],
            "name": "pause",
            "outputs": [],
            "stateMutability": "nonpayable",
            "type": "function"
        },
        {
            "inputs": [],
            "name": "paused",
            "outputs": [
                {
                    "internalType": "bool",
                    "name": "",
                    "type": "bool"
                }
            ],
            "stateMutability": "view",
            "type": "function"
        },
        {
            "inputs": [
                {
                    "internalType": "bytes32",
                    "name": "",
                    "type": "bytes32"
                },
                {
                    "internalType": "uint256",
                    "name": "",
                    "type": "uint256"
                }
            ],
            "name": "providers",
            "outputs": [
                {
                    "internalType": "address",
                    "name": "",
                    "type": "address"
                }
            ],
            "stateMutability": "view",
            "type": "function"
        },
        {
            "inputs": [],
            "name": "renounceOwnership",
            "outputs": [],
            "stateMutability": "nonpayable",
            "type": "function"
        },
        {
            "inputs": [],
            "name": "router",
            "outputs": [
                {
                    "internalType": "contract IUniswapV2Router02",
                    "name": "",
                    "type": "address"
                }
            ],
            "stateMutability": "view",
            "type": "function"
        },
        {
            "inputs": [
                {
                    "internalType": "uint16",
                    "name": "f",
                    "type": "uint16"
                }
            ],
            "name": "setSwapFee",
            "outputs": [],
            "stateMutability": "nonpayable",
            "type": "function"
        },
        {
            "inputs": [
                {
                    "internalType": "address",
                    "name": "inT",
                    "type": "address"
                },
                {
                    "internalType": "address",
                    "name": "outT",
                    "type": "address"
                },
                {
                    "internalType": "uint256",
                    "name": "amtIn",
                    "type": "uint256"
                },
                {
                    "internalType": "uint256",
                    "name": "minOut",
                    "type": "uint256"
                }
            ],
            "name": "swap",
            "outputs": [
                {
                    "internalType": "uint256",
                    "name": "",
                    "type": "uint256"
                }
            ],
            "stateMutability": "nonpayable",
            "type": "function"
        },
        {
            "inputs": [],
            "name": "swapFee",
            "outputs": [
                {
                    "internalType": "uint16",
                    "name": "",
                    "type": "uint16"
                }
            ],
            "stateMutability": "view",
            "type": "function"
        },
        {
            "inputs": [
                {
                    "internalType": "address",
                    "name": "newOwner",
                    "type": "address"
                }
            ],
            "name": "transferOwnership",
            "outputs": [],
            "stateMutability": "nonpayable",
            "type": "function"
        },
        {
            "inputs": [],
            "name": "unpause",
            "outputs": [],
            "stateMutability": "nonpayable",
            "type": "function"
        },
        {
            "inputs": [
                {
                    "internalType": "address",
                    "name": "tA",
                    "type": "address"
                },
                {
                    "internalType": "address",
                    "name": "tB",
                    "type": "address"
                },
                {
                    "internalType": "uint256",
                    "name": "liq",
                    "type": "uint256"
                }
            ],
            "name": "withdraw",
            "outputs": [],
            "stateMutability": "nonpayable",
            "type": "function"
        }
    ],
    "bytecode": "0x60a06040523480156200001157600080fd5b50604051620029f1380380620029f1833981016040819052620000349162000141565b600160005533806200006057604051631e4fbdf760e01b81526000600482015260240160405180910390fd5b6200006b81620000ef565b506001600160a01b038216620000945760405163d92e233d60e01b815260040160405180910390fd5b60328161ffff161115620000bb576040516358d620b360e01b815260040160405180910390fd5b6001600160a01b039091166080526001805461ffff909216600160a81b0261ffff60a81b1990921691909117905562000191565b600180546001600160a01b038381166001600160a01b0319831681179093556040519116919082907f8be0079c531659141344cd1fd0a4f28419497f9722a3daafe3b4186f6b6457e090600090a35050565b600080604083850312156200015557600080fd5b82516001600160a01b03811681146200016d57600080fd5b602084015190925061ffff811681146200018657600080fd5b809150509250929050565b60805161282f620001c26000396000818161053a015281816111dd015281816112eb0152611386015261282f6000f3fe608060405234801561001057600080fd5b50600436106101a95760003560e01c80638cd7d2fa116100f9578063d39a2abd11610097578063f2fde38b11610071578063f2fde38b1461050f578063f53f0ad714610522578063f887ea4014610535578063fe0291561461055c57600080fd5b8063d39a2abd1461047b578063d52bb6f4146104bd578063d9caed12146104fc57600080fd5b80639eea31b2116100d35780639eea31b21461042f578063a6c0792414610442578063b3f12d2f14610455578063bc2985531461046857600080fd5b80638cd7d2fa146103cc5780638da5cb5b146103f75780639cd05bfd1461041c57600080fd5b806354cf2aeb11610166578063673e048111610140578063673e0481146102fe578063715018a61461039c5780638456cb59146103a45780638680cbb4146103ac57600080fd5b806354cf2aeb146102a65780635c975abb146102ce5780635e1e6325146102eb57600080fd5b806320e8c565146101ae57806322c319f4146101c35780632dbfa7351461020157806331f7aa2b146102145780633f4ba83a1461023f578063400f7a1e14610247575b600080fd5b6101c16101bc3660046123aa565b61056f565b005b6101ee6101d13660046123ec565b600360209081526000928352604080842090915290825290205481565b6040519081526020015b60405180910390f35b6101c161020f366004612418565b6109f2565b6101ee6102223660046123ec565b600560209081526000928352604080842090915290825290205481565b6101c1610a21565b61025a610255366004612418565b610a33565b604080516001600160a01b0398891681529790961660208801526001600160701b0394851695870195909552929091166060850152608084015260a083015260c082015260e0016101f8565b6001546102bb90600160a81b900461ffff1681565b60405161ffff90911681526020016101f8565b600154600160a01b900460ff1660405190151581526020016101f8565b6101ee6102f9366004612442565b610af8565b61035961030c36600461247e565b600260208190526000918252604090912080546001820154928201546003909201546001600160701b0380831694600160701b840490911693600160e01b90930463ffffffff1692909186565b604080516001600160701b03978816815296909516602087015263ffffffff909316938501939093526060840152608083019190915260a082015260c0016101f8565b6101c1610cf5565b6101c1610d07565b6103bf6103ba366004612418565b610d17565b6040516101f891906124dc565b6101ee6103da3660046123ec565b600460209081526000928352604080842090915290825290205481565b6001546001600160a01b03165b6040516001600160a01b0390911681526020016101f8565b6101c161042a3660046124ef565b610d96565b6101ee61043d366004612513565b610e1a565b6101c1610450366004612418565b610e54565b6101ee6104633660046123aa565b610ff1565b6101ee610476366004612418565b61147b565b6104a861048936600461247e565b6000908152600260208190526040909120908101546003909101549091565b604080519283526020830191909152016101f8565b6104d06104cb366004612418565b61148e565b604080516001600160701b03948516815293909216602084015263ffffffff16908201526060016101f8565b6101c161050a36600461253f565b6114dc565b6101c161051d36600461257b565b61186f565b610404610530366004612596565b6118b2565b6104047f000000000000000000000000000000000000000000000000000000000000000081565b6101ee61056a3660046123aa565b6118ea565b610577611c7c565b61057f611ca7565b6001600160a01b038416158061059c57506001600160a01b038316155b156105ba5760405163d92e233d60e01b815260040160405180910390fd5b826001600160a01b0316846001600160a01b0316036105ec57604051635c6d7b7360e01b815260040160405180910390fd5b8115806105f7575080155b1561061557604051631719de7160e21b815260040160405180910390fd5b60006106218585611cd1565b600081815260026020818152604080842060089092528084208151808301928390529596509194929082845b81546001600160a01b0316815260019091019060200180831161064d575050505050905060006001600160a01b03168160006002811061068f5761068f6125b8565b60200201516001600160a01b0316036106f957856001600160a01b0316876001600160a01b0316106106c25785876106c5565b86865b6001600160a01b039081166020808501919091529116825260008481526008909152604090206106f790826002612326565b505b61070e6001600160a01b038816333088611d5d565b6107236001600160a01b038716333087611d5d565b6040805160808101825283546001600160701b038082168352600160701b8204166020830152600185015492820192909252600160e01b90910463ffffffff166060820181905260009081036107a4576001610787610782888a6125e4565b611dc4565b61079191906125fb565b63ffffffff42166060840152905061080e565b815160408301516000916001600160701b0316906107c2908a6125e4565b6107cc919061260e565b9050600083602001516001600160701b03168460400151896107ee91906125e4565b6107f8919061260e565b90508082106108075780610809565b815b925050505b60008581526003602090815260408083203384529091529020548015610838576108388633611e31565b6108428282612630565b6000878152600360209081526040808320338085529083528184209490945589835260068252808320938352929052205460ff166108cf57600086815260066020908152604080832033808552908352818420805460ff191660019081179091558a8552600784529184208054928301815584529190922090910180546001600160a01b03191690911790555b87836000018181516108e19190612643565b6001600160701b0316905250602083018051889190610901908390612643565b6001600160701b0316905250604083018051839190610921908390612630565b9052508251855460208086015160408088015160018b015560608089015163ffffffff16600160e01b026001600160e01b036001600160701b03948516600160701b026001600160e01b03199097169490971693909317949094179490941617885582516001600160a01b038e811682528d16918101919091529182018a905281018890526080810183905233907f76fbc6746f9766ec8a8dc297122a14d120cc5fc43cd3f389031392fd382a236e9060a00160405180910390a25050505050506109ec6001600055565b50505050565b6109fa611ca7565b6000610a068383611cd1565b9050610a128133611e31565b50610a1d6001600055565b5050565b610a29612143565b610a31612170565b565b600080600080600080600080610a498a8a611cd1565b600081815260026020818152604080842060089092528084208151808301928390529596509194929082845b81546001600160a01b03168152600190910190602001808311610a75575050505050905080600060028110610aac57610aac6125b8565b60209081029190910151910151825460018401546002850154600390950154939f929e506001600160701b038083169e50600160701b9092049091169b50995091975095509350505050565b60006001600160a01b0383161580610b1757506001600160a01b038216155b15610b355760405163d92e233d60e01b815260040160405180910390fd5b816001600160a01b0316836001600160a01b031603610b6757604051635c6d7b7360e01b815260040160405180910390fd5b83600003610b8857604051631719de7160e21b815260040160405180910390fd5b6000610b948484611cd1565b60008181526002602052604090208054919250906001600160701b03161580610bcc57508054600160701b90046001600160701b0316155b15610bea57604051636180f03f60e11b815260040160405180910390fd5b600154600090610c0790600160a81b900461ffff166103e861266a565b610c159061ffff16886125e4565b6000848152600860205260408120549192506001600160a01b039182169188168214610c52578354600160701b90046001600160701b0316610c5e565b83546001600160701b03165b6001600160701b031690506000826001600160a01b0316896001600160a01b031614610c945784546001600160701b0316610ca7565b8454600160701b90046001600160701b03165b6001600160701b031690506000610cbe82866125e4565b9050600085610ccf6103e8866125e4565b610cd99190612630565b9050610ce5818361260e565b9c9b505050505050505050505050565b610cfd612143565b610a3160006121c5565b610d0f612143565b610a31612217565b60606000610d258484611cd1565b6000818152600760209081526040918290208054835181840281018401909452808452939450919290830182828015610d8757602002820191906000526020600020905b81546001600160a01b03168152600190910190602001808311610d69575b50505050509150505b92915050565b610d9e612143565b60328161ffff161115610dc4576040516358d620b360e01b815260040160405180910390fd5b6001805461ffff60a81b1916600160a81b61ffff8416908102919091179091556040519081527f5410e855817dc15c3c3a5b707c6f5415707859118235fc6fb6ee727c587092469060200160405180910390a150565b600080610e278484611cd1565b60009081526003602090815260408083206001600160a01b03891684529091529020549150509392505050565b610e5c611ca7565b610e64612143565b6000610e708383611cd1565b6000818152600260208181526040808420815160808101835281546001600160701b03808216808452600160701b90920416948201949094529182018590526060820194909452918301546003840154949550929391929190158015610ee1575060208301516001600160701b0316155b15610eff576040516309c6240b60e41b815260040160405180910390fd5b81158015610f0b575080155b15610f29576040516303fbecdf60e51b815260040160405180910390fd5b8183600001818151610f3b9190612643565b6001600160701b0316905250602083018051829190610f5b908390612643565b6001600160701b039081169091528451865460208701518316600160701b026001600160e01b0319909116919092161717855550600060028501819055600385015560405185907fa9b3d87581daecfdd8ce1aae8bee0fdb40c466f6ce9d792cdf9ba86943d4001590610fda9085908590918252602082015260400190565b60405180910390a25050505050610a1d6001600055565b6000610ffb611c7c565b611003611ca7565b6001600160a01b038516158061102057506001600160a01b038416155b1561103e5760405163d92e233d60e01b815260040160405180910390fd5b836001600160a01b0316856001600160a01b03160361107057604051635c6d7b7360e01b815260040160405180910390fd5b8260000361109157604051631719de7160e21b815260040160405180910390fd5b6040516323b872dd60e01b8152336004820152306024820152604481018490526001600160a01b038616906323b872dd906064016020604051808303816000875af11580156110e4573d6000803e3d6000fd5b505050506040513d601f19601f820116820180604052508101906111089190612685565b5060006103e86111196005866125e4565b611123919061260e565b9050600061113182866125fb565b9050866001600160a01b031663a9059cbb6111546001546001600160a01b031690565b6040516001600160e01b031960e084901b1681526001600160a01b039091166004820152602481018590526044016020604051808303816000875af11580156111a1573d6000803e3d6000fd5b505050506040513d601f19601f820116820180604052508101906111c59190612685565b5060405163095ea7b360e01b81526001600160a01b037f0000000000000000000000000000000000000000000000000000000000000000811660048301526024820183905288169063095ea7b3906044016020604051808303816000875af1158015611235573d6000803e3d6000fd5b505050506040513d601f19601f820116820180604052508101906112599190612685565b50604080516002808252606082018352600092602083019080368337019050509050878160008151811061128f5761128f6125b8565b60200260200101906001600160a01b031690816001600160a01b03168152505086816001815181106112c3576112c36125b8565b6001600160a01b0392831660209182029290920101526040516338ed173960e01b81526000917f000000000000000000000000000000000000000000000000000000000000000016906338ed1739906113289086908a908790339042906004016126bd565b6000604051808303816000875af1158015611347573d6000803e3d6000fd5b505050506040513d6000823e601f3d908101601f1916820160405261136f91908101906126f9565b60405163095ea7b360e01b81526001600160a01b037f00000000000000000000000000000000000000000000000000000000000000008116600483015260006024830152919250908a169063095ea7b3906044016020604051808303816000875af11580156113e2573d6000803e3d6000fd5b505050506040513d601f19601f820116820180604052508101906114069190612685565b5060008160018151811061141c5761141c6125b8565b602002602001015190507fb3757723bfa76d004874bcfb942263d343ee656fc78860d38bb9876b1fb5caa88a8a8a8460405161145b94939291906127b7565b60405180910390a19450505050506114736001600055565b949350505050565b60006114878383611cd1565b9392505050565b60008060008061149e8686611cd1565b6000908152600260205260409020546001600160701b0380821698600160701b83049091169750600160e01b90910463ffffffff1695509350505050565b6114e4611c7c565b6114ec611ca7565b60006114f88484611cd1565b6000818152600260209081526040808320815160808101835281546001600160701b038082168352600160701b90910416818501526001820154818401526060810185905285855260038452828520338652909352922054929350909184158061156157508085115b1561157f5760405163bb55fd2760e01b815260040160405180910390fd5b600084815260086020526040808220815180830192839052839283929060029082845b81546001600160a01b031681526001909101906020018083116115a25750505050509050846040015188036116b25780516040516370a0823160e01b81523060048201526001600160a01b03909116906370a0823190602401602060405180830381865afa158015611618573d6000803e3d6000fd5b505050506040513d601f19601f8201168201806040525081019061163c91906127e0565b60208201516040516370a0823160e01b81523060048201529194506001600160a01b0316906370a0823190602401602060405180830381865afa158015611687573d6000803e3d6000fd5b505050506040513d601f19601f820116820180604052508101906116ab91906127e0565b9150611703565b604085015185516116cc906001600160701b03168a6125e4565b6116d6919061260e565b9250846040015185602001516001600160701b0316896116f691906125e4565b611700919061260e565b91505b61170d8733611e31565b61171788856125fb565b6000888152600360209081526040808320338452909152908190209190915585015188036117595785546001600160e01b0319168655600060018701556117e7565b845161176f9084906001600160701b03166125fb565b6001600160701b039081168652602086015161178d918491166125fb565b6001600160701b0316602086015260408501516117ab9089906125fb565b604086018190528551875460208801516001600160701b03908116600160701b026001600160e01b031990921692169190911717875560018701555b61180533848360005b60200201516001600160a01b0316919061225a565b61181233838360016117f0565b336001600160a01b03167ffbde797d201c681b91056529119e0b02407c7bb96a4a2c75c01fc9667232c8db8b8b868660405161185194939291906127b7565b60405180910390a25050505050505061186a6001600055565b505050565b611877612143565b6001600160a01b0381166118a657604051631e4fbdf760e01b8152600060048201526024015b60405180910390fd5b6118af816121c5565b50565b600760205281600052604060002081815481106118ce57600080fd5b6000918252602090912001546001600160a01b03169150829050565b60006118f4611c7c565b6118fc611ca7565b836001600160a01b0316856001600160a01b0316148061191a575082155b1561193857604051631719de7160e21b815260040160405180910390fd5b60006119448686611cd1565b60008181526002602052604090208054919250906001600160701b0316158061197c57508054600160701b90046001600160701b0316155b1561199a5760405163c7947bf960e01b815260040160405180910390fd5b6119af6001600160a01b038816333088611d5d565b6040805160808101825282546001600160701b038082168352600160701b9091041660208201526000918101829052606081018290526001549091906103e890611a0490600160a81b900461ffff16896125e4565b611a0e919061260e565b90506000611a1c82896125fb565b6000868152600860205260408120549192506001600160a01b03918216918c168214611a4c578460200151611a4f565b84515b6001600160701b031690506000826001600160a01b03168d6001600160a01b031614611a7c578551611a82565b85602001515b6001600160701b031690506000611a998584612630565b611aa383856125e4565b611aad919061260e565b611ab790836125fb565b90508a811015611ada57604051634c9b2c5960e01b815260040160405180910390fd5b836001600160a01b03168e6001600160a01b031603611b57578651611b099086906001600160701b0316612630565b6001600160701b0390811688526020880151611b27918391166125fb565b6001600160701b03166020880152600288018054879190600090611b4c908490612630565b90915550611bb69050565b8487602001516001600160701b0316611b709190612630565b6001600160701b0390811660208901528751611b8e918391166125fb565b6001600160701b03168752600388018054879190600090611bb0908490612630565b90915550505b86518854602089015163ffffffff428116600160e01b026001600160e01b036001600160701b03938416600160701b026001600160e01b031990951693909516929092179290921792909216919091178955611c21906001600160a01b038f16903390849061225a16565b336001600160a01b03167fcd3829a3813dc3cdd188fd3d01dcf3268c16be2fdd2dd21d0665418816e460628f8f8f85604051611c6094939291906127b7565b60405180910390a2985050505050505050506114736001600055565b600154600160a01b900460ff1615610a315760405163d93c066560e01b815260040160405180910390fd5b600260005403611cca57604051633ee5aeb560e01b815260040160405180910390fd5b6002600055565b6000816001600160a01b0316836001600160a01b031610611cf25781611cf4565b825b826001600160a01b0316846001600160a01b031610611d135783611d15565b825b6040516bffffffffffffffffffffffff19606093841b811660208301529190921b16603482015260480160405160208183030381529060405280519060200120905092915050565b6040516001600160a01b0384811660248301528381166044830152606482018390526109ec9186918216906323b872dd906084015b604051602081830303815290604052915060e01b6020820180516001600160e01b03838183161783525050505061228b565b806003811115611e22576000611ddb60028461260e565b611de6906001612630565b90505b81811015611e1c57905080600281611e01818661260e565b611e0b9190612630565b611e15919061260e565b9050611de9565b50919050565b8115611e2c575060015b919050565b6000828152600260208181526040808420928301546003808501549084528286206001600160a01b03881687529093529320549192918015801590611e7a575060008460010154115b1561213b576001840154600090611e9183866125e4565b611e9b919061260e565b9050600085600101548385611eb091906125e4565b611eba919061260e565b60008981526004602090815260408083206001600160a01b038c168452909152812054919250908311611eee576000611f1b565b60008981526004602090815260408083206001600160a01b038c168452909152902054611f1b90846125fb565b60008a81526005602090815260408083206001600160a01b038d168452909152812054919250908311611f4f576000611f7c565b60008a81526005602090815260408083206001600160a01b038d168452909152902054611f7c90846125fb565b60008b8152600860205260408082208151808301928390529394509192919060029082845b81546001600160a01b03168152600190910190602001808311611fa15750505050509050600083111561207d5760008b81526004602090815260408083206001600160a01b038e16845290915281208054859290612000908490612630565b9091555050805160405163a9059cbb60e01b81526001600160a01b038c81166004830152602482018690529091169063a9059cbb906044016020604051808303816000875af1158015612057573d6000803e3d6000fd5b505050506040513d601f19601f8201168201806040525081019061207b9190612685565b505b81156121355760008b81526005602090815260408083206001600160a01b038e168452909152812080548492906120b5908490612630565b9091555050602081015160405163a9059cbb60e01b81526001600160a01b038c81166004830152602482018590529091169063a9059cbb906044016020604051808303816000875af115801561210f573d6000803e3d6000fd5b505050506040513d601f19601f820116820180604052508101906121339190612685565b505b50505050505b505050505050565b6001546001600160a01b03163314610a315760405163118cdaa760e01b815233600482015260240161189d565b6121786122fc565b6001805460ff60a01b191690557f5db9ee0a495bf2e6ff9c91a7834c1ba4fdd244a5e8aa4e537bd38aeae4b073aa335b6040516001600160a01b03909116815260200160405180910390a1565b600180546001600160a01b038381166001600160a01b0319831681179093556040519116919082907f8be0079c531659141344cd1fd0a4f28419497f9722a3daafe3b4186f6b6457e090600090a35050565b61221f611c7c565b6001805460ff60a01b1916600160a01b1790557f62e78cea01bee320cd4e420270b5ea74000d11b0c9f74754ebdbfc544b05a2586121a83390565b6040516001600160a01b0383811660248301526044820183905261186a91859182169063a9059cbb90606401611d92565b600080602060008451602086016000885af1806122ae576040513d6000823e3d81fd5b50506000513d915081156122c65780600114156122d3565b6001600160a01b0384163b155b156109ec57604051635274afe760e01b81526001600160a01b038516600482015260240161189d565b600154600160a01b900460ff16610a3157604051638dfc202b60e01b815260040160405180910390fd5b826002810192821561236e579160200282015b8281111561236e57825182546001600160a01b0319166001600160a01b03909116178255602090920191600190910190612339565b5061237a92915061237e565b5090565b5b8082111561237a576000815560010161237f565b80356001600160a01b0381168114611e2c57600080fd5b600080600080608085870312156123c057600080fd5b6123c985612393565b93506123d760208601612393565b93969395505050506040820135916060013590565b600080604083850312156123ff57600080fd5b8235915061240f60208401612393565b90509250929050565b6000806040838503121561242b57600080fd5b61243483612393565b915061240f60208401612393565b60008060006060848603121561245757600080fd5b8335925061246760208501612393565b915061247560408501612393565b90509250925092565b60006020828403121561249057600080fd5b5035919050565b60008151808452602080850194506020840160005b838110156124d15781516001600160a01b0316875295820195908201906001016124ac565b509495945050505050565b6020815260006114876020830184612497565b60006020828403121561250157600080fd5b813561ffff8116811461148757600080fd5b60008060006060848603121561252857600080fd5b61253184612393565b925061246760208501612393565b60008060006060848603121561255457600080fd5b61255d84612393565b925061256b60208501612393565b9150604084013590509250925092565b60006020828403121561258d57600080fd5b61148782612393565b600080604083850312156125a957600080fd5b50508035926020909101359150565b634e487b7160e01b600052603260045260246000fd5b634e487b7160e01b600052601160045260246000fd5b8082028115828204841417610d9057610d906125ce565b81810381811115610d9057610d906125ce565b60008261262b57634e487b7160e01b600052601260045260246000fd5b500490565b80820180821115610d9057610d906125ce565b6001600160701b03818116838216019080821115612663576126636125ce565b5092915050565b61ffff828116828216039080821115612663576126636125ce565b60006020828403121561269757600080fd5b8151801515811461148757600080fd5b634e487b7160e01b600052604160045260246000fd5b85815284602082015260a0604082015260006126dc60a0830186612497565b6001600160a01b0394909416606083015250608001529392505050565b6000602080838503121561270c57600080fd5b825167ffffffffffffffff8082111561272457600080fd5b818501915085601f83011261273857600080fd5b81518181111561274a5761274a6126a7565b8060051b604051601f19603f8301168101818110858211171561276f5761276f6126a7565b60405291825284820192508381018501918883111561278d57600080fd5b938501935b828510156127ab57845184529385019392850192612792565b98975050505050505050565b6001600160a01b0394851681529290931660208301526040820152606081019190915260800190565b6000602082840312156127f257600080fd5b505191905056fea2646970667358221220a611ccb40debe7451845c6aa140ed3a18b0801289c0c92d29d2e499fbc21cd4164736f6c63430008180033",
    "linkReferences": {},
    "deployedLinkReferences": {}
}